:100000006F00404A130000001300000013000000BE
:100010001300000013000000130000001300000094
:100020001300000013000000130000001300000084
:08003000130000007300100032
:100038000000000000000000A8020000AC02000060
:1000480000000000EA0300000000000000000000BB
:10005800EC030000EE0300000000000000000000B8
:10006800F003000000000000F203000000000000A0
:10007800F4030000F6030000F8030000FA03000090
:10008800FC030000FE03000000040000020400005E
:100098000404000006040000080400000A0400002C
:1000A8000C0400000E0400001004000012040000FC
:1000B8001404000016040000180400001A040000CC
:1000C8001C0400001E04000020040000220400009C
:1000D8002404000026040000280400002A0400006C
:1000E800780E00002E0400003004000032040000E6
:1000F8003404000036040000380400003A0400000C
:100108003C0400003E0400004004000042040000DB
:100118004404000046040000480400004A040000AB
:100128004C0400004E04000050040000520400007B
:100138005404000056040000580400005A0400004B
:100148005C0400005E04000060040000620400001B
:100158006404000066040000680400006A040000EB
:100168006C0400006E0400007004000072040000BB
:100178007404000076040000780400007A0400008B
:100188007C0400007E04000080040000820400005B
:100198008404000086040000880400008A0400002B
:1001A8008C0400008E0400009004000092040000FB
:1001B8009404000096040000980400009A040000CB
:1001C8009C0400009E040000A0040000A20400009B
:1001D8000000000000000000000000000000000017
:1001E8000000000000000000000000000000000007
:0801F8000000000000000000FF
:100200003D432A876373C3029377F700BDEFADE5E3
:10021000937606FF3D8ABA960CC34CC30CC74CC7F5
:100220004107E36BD7FE11E28280B306C3408A0622
:100230009702000096966780A6002307B700A306E2
:10024000B7002306B700A305B7002305B700A30432
:10025000B7002304B700A303B7002303B700A3022A
:10026000B7002302B700A301B7002301B700A30022
:10027000B7002300B700828093F5F50F93968500B1
:10028000D58D93960501D58D61B79396270097027A
:10029000000096968682E78086FA9680C1171D8FA9
:1002A0003E96E374C3F8A5B77300203001A0411156
:1002B000094506C60927EF10802F71651305052033
:1002C000EF10E034B707002083A50707373500009B
:1002D00013058590EF10E040373500001305859138
:1002E000EF10C051EF10E01FEF108020F5BFB717DF
:1002F00002409843B706FFF841111367170098C3EF
:10030000D84337060200758FD8C39843B706F7FE67
:10031000FD16758F98C39843B706FCFFFD16758FC1
:1003200098C3D843B70681FFFD16758FD8C398438D
:10033000B70600ECFD16758F98C33707FF0098C706
:1003400023A6070202C402C69843C166558F98C30C
:10035000B716024005679C42F18F3EC6A24785074B
:100360003EC4B24781E7A247E397E7FEB7170240D2
:100370009C431397E7006356070685473EC63247FE
:100380008547631EF704B7170240D843B706C1FF7D
:10039000FD16D8C3D843D8C3D84313670740D8C382
:1003A000D843758FD8C3D843C166558FD8C39843F7
:1003B000B7060001558F98C3984393166700E3DD95
:1003C00006FED843B7160240719BD8C3D8431367C3
:1003D0002700D8C32147DC42B18BE39EE7FE4101F1
:1003E000828002C669BF01A001A001A001A001A0F6
:1003F00001A001A001A001A001A001A001A001A0F5
:1004000001A001A001A001A001A001A001A001A0E4
:1004100001A001A001A001A001A001A001A001A0D4
:1004200001A001A001A001A001A001A001A001A0C4
:1004300001A001A001A001A001A001A001A001A0B4
:1004400001A001A001A001A001A001A001A001A0A4
:1004500001A001A001A001A001A001A001A001A094
:1004600001A001A001A001A001A001A001A001A084
:1004700001A001A001A001A001A001A001A001A074
:1004800001A001A001A001A001A001A001A001A064
:1004900001A001A001A001A001A001A001A001A054
:1004A00001A001A0970100209381C13C1781002089
:1004B000130141B517350000130545D697050020F7
:1004C000938545B41386818163FAC50083220500B4
:1004D00023A0550011059105E3EAC5FE138581812E
:1004E000938501846377B500232005001105E36D32
:1004F000B5FEFD42739002BCED4273904280B7623C
:1005000000009382820873A0023097020000938259
:10051000E2B293E2320073905230EFF05FDD970267
:100520000000938202D973901234730020301C4172
:1005300041677917F98F1CC123200500232205008C
:1005400023240500B70702402326050013878700F0
:100550006317E500D8431367F700D8C38280138779
:10056000C7016316E500D8431367070FFDB713876C
:1005700007036318E500D8438566938606F0558F18
:10058000E9BF138747046315E500D843BD66C5BFBF
:10059000138787056316E500D843B7060F00C5B774
:1005A0001387C7066316E500D843B706F000C1BF3E
:1005B000138707086316E500D843B706000FC1B7D5
:1005C000138787406319E50003A747401367F700C7
:1005D00023A2E74082801387C7416317E50003A782
:1005E00047401367070FEDB793870743631BF50079
:1005F000B707024003A747408566938606F0558FEC
:10060000C1BFB7070240138747446316E50003A73D
:100610004740BD66EDB7138787456317E50003A71D
:100620004740B7060F00E1BF1387C7466317E500D1
:1006300003A74740B706F000D9B7138707486317E9
:10064000E50003A74740B706000F55BF13870749CA
:100650006319E50003A7474D1367F70023AAE74C8A
:1006600082801387074A6317E50003A7474D136786
:10067000070FEDB71387074B6319E50003A7474D35
:100680008566938606F0558FD1BF1387074CE31913
:10069000E5FC03A7474DBD66FDB71C4161773D07EB
:1006A00094517D8F9C45D58F9449D58FD449D58F52
:1006B000944DD58FD44DD58FD451D58F9455D58F9A
:1006C000D98F1CC1DC455CC19C411CC5DC415CC5AB
:1006D00082809C4513F7070113F8F70001C7D84142
:1006E0003368E80083D5050013F7F50F39C31841C7
:1006F0008146854E3D4F930F800293028004214E28
:100700003396DE00B3F8C5006311160393982600F4
:1007100033131F011343F3FF3377E300B3181801BA
:1007200033E7E800639FF70550C98506E39AC6FDE5
:1007300018C11307F00F6375B70454412146854E65
:100740003D4F930F800293028004414EB398CE0038
:1007500033F715016392E8021317260001173313CC
:10076000EF001343F3FFB376D3003317E800D98EBD
:10077000639DF701232A15010506E319C6FD54C13F
:100780008280E39457FA10C94DB7E39757FE2328A8
:100790001501DDB708456D8D3335A00082803971B4
:1007A00022DC26DA2A848354450068082EC606DE39
:1007B000D124925737470F001307072433D7E70296
:1007C000C204C18093F404FCC204C180B2456165D7
:1007D0001305056A131607014182D18C2312940078
:1007E00083560400C206C182F99AC206C182231050
:1007F000D40094416366D5068606B3D7D7029146E6
:10080000139707014183BA876373D70091470506A1
:100810004206C2074182C1832310C402231EF40092
:100820008357040003D7450083D6A50093E717003C
:100830002310F40083570400558FF250C207C18380
:1008400093F757BFD98F2310F40003D7850083D7C0
:10085000C500D254D98F2314F400625421618280E0
:1008600003D5650031667D16631EC5020D46B3864D
:10087000C602B3D7D702C207C1839396470199E254
:1008800093E71700A166D58F9306C0123307D702EE
:100890009306803E3347D702050742074183231062
:1008A000E402ADBF6546B386C602B3D7D7029166F0
:1008B000C207C183D58FD1B78357050091C593E790
:1008C00017002310F5008280C207C183F99BC2077D
:1008D000C183C5BF0357450091C9856793870780CA
:1008E000D98FC207C1832312F5008280FD779387D9
:1008F000F77FF98FCDBF8357050091C593E70710A8
:100900002310F5008280C207C18393F7F7EFC20777
:10091000C183FDB78357050091C593E707202310D6
:10092000F5008280C207C18393F7F7DFC207C18356
:10093000FDB78357050091C593E707402310F500E5
:100940008280C207C18393F7F7BFC207C183FDB797
:100950002318B500828093F7E50F19C293E71500BD
:10096000C207C1832318F5008280835745010355D0
:10097000850142055D8D6D8D220521810D8D13351B
:1009800015008280411102C402C693D7C5012AC650
:100990003EC4A247A205A18199CBB247D1073EC66A
:1009A000B247884341016D8D3335A0008280B24744
:1009B000C181E107EDB723ACA1808280938781815B
:1009C00094430347050089E683472500920731A831
:1009D000944305466391C6048347250003461500EA
:1009E00092076314D60093E707F8B7E600E093F7A1
:1009F000F70FBA962380F6408546935757003397F2
:100A0000E6005441ADC6938707048A07B7E600E0C5
:100A1000B69798C382808C4389466393D5028346F8
:100A20001500834725006365D6008A06B69779BF0F
:100A30009386E6038A06B69793F7F70F920765B792
:100A400090438D46631ED6008346150083472500DC
:100A50006364D6008606D9BF9386C6078606E1BFC3
:100A600094439147E39AF6F88347150085B7938737
:100A7000070661BF371702405C439146B18B63851F
:100A8000D700A1466386D706B7177A009387072059
:100A90001CC1371602405C423707002013070700CD
:100AA0009183BD8BBA9783C607001C41B3D7D7008B
:100AB0005CC15442A1829D8ABA9683C60600B3D611
:100AC000D70014C55442AD829D8A3697034707006C
:100AD000B3D7E7005CC55842398393763700138754
:100AE0004180369703470700B3D7E7021CC98280CD
:100AF0005C4354434167C983F98E37F7FF1F0327CF
:100B0000C770BD8B89071316170163480600454659
:100B100001476392C702C94739A809476389E702B9
:100B20003D476388E70241476388E702454601473E
:100B30006393C700C14785E6B746024083A6068097
:100B4000C18A8DC6B7167A009386062025A0014774
:100B5000D9B70547B547C5B70147BD47E9BFB71680
:100B60000240D4421396E600E35E06FCB7163D0051
:100B700093860690B387D7021CC101DF1C41858391
:100B800001BF99C5371702405C4B5D8D48CB828011
:100B9000B7170240D84B1345F5FF798DC8CB82803B
:100BA00099C5371702401C4F5D8D08CF8280B7175B
:100BB0000240984F1345F5FF798D88CF828099C503
:100BC000371702405C4F5D8D48CF8280B7170240D7
:100BD000D84F1345F5FF798DC8CF82808357050024
:100BE00037370140930607C0C207C1836300D504AD
:100BF000B7060040630CD502938606406308D50211
:100C0000B7160040138606806302C502938606C0AD
:100C1000630ED50013070740630AE500375701400C
:100C2000930607C06304D5006317E50003D72500CA
:100C300093F7F7F8D98F37170040630DE5001307D6
:100C400007406309E50093F7F7CF03D76500C207B4
:100C5000C183D98F2310F50083D745002316F502F1
:100C600083D705002314F502B7370140138707C067
:100C7000630EE50093870740630AF500B75701400C
:100C8000138707C06304E5006316F50083C785007A
:100C90002318F5028547231AF50082808357050043
:100CA00091C593E717002310F5008280C207C18326
:100CB000F99BC207C183C5BF8357C50009C6DD8D37
:100CC0002316B500828093C5F5FFFD8DD5BF8357F0
:100CD00005010355C500ED8F4205418189C76D8D22
:100CE0003335A00082800145828093C5F5FFC2059F
:100CF000C1812318B500828083560501F577FD1761
:100D0000F58F83D66500397122DC06DED58F03D7D7
:100D1000C5002318F5008356C500FD779387379FDC
:100D2000F58F83D645002A842EC6D58F83D68500BD
:100D3000D58F83D6A500D58F2316F500835745019F
:100D4000C207C18393F7F7CFD98F231AF50068083C
:100D50001533B747014093870780B245631EF404FB
:100D6000A2578356C4006547B387E702C206C1860F
:100D7000984163D5060406070356C4004206B3D75C
:100D8000E702130740064186B3D6E702B3F7E7024E
:100D90009206635706028E0793872703B3D7E702AD
:100DA00013F77700B367D700C207C1832314F40099
:100DB000F250625421618280925765B70A076DBF75
:100DC000920793872703B3D7E702BD8BD58FE9BF7F
:100DD00081C98357C5000967D98F2316F500828022
:100DE0000357C500F977FD17F98FC5BF93F5F51FB8
:100DF0002312B5008280035505006D8D3335A000A8
:100E0000828001118545114506CE593B93070004A8
:100E1000371501402312F1004C009307800413059D
:100E200005803EC67D30F24005618280797106D62C
:100E3000C93F85450545613391679387F7833ECA6E
:100E40004C08A547370500403ECC493B0546854543
:100E50003705004095359307C0022316F10068005E
:100E600085473EC823070100913E85453705004070
:100E70003535B250456182804111854537050040C6
:100E800022C626C44AC2A1356306050E854537052C
:100E90000040A13DB7140140930500041385048070
:100EA000D53883C7D1811384D1815D8D1375F50F3A
:100EB000138941821DE19387C18103C707008546DD
:100EC0002300D90005072380E7002300D40083A76F
:100ED0004183850723AAF18219A89305000413858D
:100EE00004804D3885476311F5042300040083A76F
:100EF0000182930670701387018263D2F60603C6DF
:100F0000C18185466312D60403A54183930500324F
:100F100063C4A50023ACC18203A6418393060032BB
:100F200063DFC6020D4615A803470400E311F7FC72
:100F300079BF23AA01822320070023000400238E07
:100F40000180230009003DA08946631AD60083A5CD
:100F500041839306003263C4B60023ACC1820346CA
:100F6000090085466318D60085079306007DE38255
:100F7000D7FC1CC33244A244124941017300203003
:100F8000011122CC3764004026CA4AC84EC606CE9C
:100F900052C42A89AE8993040480B70502002685CD
:100FA000D53265FD13050480854537040300B76419
:100FB000004091320504138A0480A285528575325F
:100FC0006DDD13850480014693058007B704070093
:100FD00037640040493293842408130A0480A685AC
:100FE000528561326DDD81456384090093050004FB
:100FF00013050480B764004037040700913A1304D6
:10100000440893890480A2854E8585326DDDCA85AA
:101010001385048037040700B7640040153A1304B1
:10102000440813890480A2854A8581326DDD6244BB
:10103000F2404249B249224A13850480D244854590
:101040000561C9B8411122C42A84138505FB1375B3
:10105000F50F814506C62D371375F40081450D3710
:10106000135544002244B2408145136505014101F6
:1010700001BF011126CA9344F5FF22CC4EC652C4CB
:1010800056C206CE4AC8AA89AE8A1304000B93F44E
:10109000F40F130A800B81452285DD35814501451A
:1010A000C53581454145E93D1309000885454E8513
:1010B00063830A0026857D19E135E31909FE0504DD
:1010C0001374F40FE31944FDF2406244D2444249E0
:1010D000B249224A924A056182805D718545370591
:1010E000400086C6A2C4A6C202C402C602C802CA82
:1010F00002CC02CE02D0E1348545214555348567C6
:10110000938707C02314F10037150140F1473EC80B
:101110002C008D47130505C03EC6EFF08FDBB727C7
:101120000600938707A83ECAB7070040376400400F
:101130003ECCB70700043ECE4C08916713050480EF
:101140002310F102EFF0AFE5130504808545EFF0C1
:10115000AFF6854513050480EFF0AFFD13052003BE
:10116000A5291306C00281454808EFF06F8985451F
:101170000545013CB704024013854404EFF02FBB42
:10118000930704813ECAC1473ECE930700083ED470
:101190004C088D67138544043EDC02D202D602D887
:1011A00002DA02DEEFF06FCF854513050480EFF021
:1011B0006FF2130540060D2181451305E00AC9337E
:1011C00081451305100A6D3B81451305800C4D3B8D
:1011D00081451305600A6D3381451305000B4D33BE
:1011E00081450145713B81454145593B8145130589
:1011F00000047933814513051008593381451305DF
:10120000F00FBD3B81451305300D9D3B81450145E8
:10121000853B81451305500DA53381451305000815
:10122000853381451305900DA13B81451305100FB2
:10123000813B81451305A00DA13381454945893383
:1012400081451305B00D2D3B8145130500040D3B71
:1012500081451305D0082D3381455145153381450E
:101260000145013D81451305F00A193BB64026446E
:10127000964461618280011122CC4AC8130406FEA3
:1012800006CE26CA4EC652C456C25AC0A1473A8993
:101290001374F40F6396F604753319463304C402CD
:1012A0008D69814493890993194AB3878400CE9745
:1012B00003C507008545630709001345F5FF85450C
:1012C0001375F50F85046D39E39144FFF2406244D4
:1012D000D2444249B249224A924A024B0561828075
:1012E0008D64AA8A2E8A1204B13B8149938484B505
:1012F000214BB3878900A69703C50700854563077F
:1013000009001345F5FF85451375F50F85098D39DE
:10131000E39169FF93051A0093F5F50F568526941E
:101320001533A1440345840085456307090013452F
:10133000F5FF85451375F50FFD1493F4F40F89310E
:101340000504EDF061B7397126DA4AD84ED652D489
:1013500056D25AD0BE8A06DE22DC5ECE62CC66CA87
:101360006AC86EC6A147AE89328A368BBA841949DB
:101370006307F700C14701496313F70021493304AC
:10138000A9001374F40F63530A04330A40415687CB
:10139000A6861306D002CE857D1BF13D137DFB0F83
:1013A000814D014C930BF00FA94C63167D03F25055
:1013B0006254D2544259B259225A925A025BF24BA9
:1013C000624CD24C424DB24D216182805687A68636
:1013D00013060002C9B76A8785477D171377F70F91
:1013E000631C7703B357FA02B3F7970313F6F70FAB
:1013F00063180C0263D66D039DE35687A686130619
:1014000000022285CE854A947D1DB535850D137465
:10141000F40F137DFD0F51BFB38797037DBF054CBC
:101420005687A68613060603E9BF797122D426D211
:101430004AD04ECE52CC56CA5AC85EC662C466C2A4
:101440006AC006D6AA842E843289B6893A8BB54BF7
:10145000130CA007414A930C8007A14A294D8347EA
:10146000090099EFB250225492540259F249624A4B
:10147000D24A424BB24B224C924C024D4561828083
:10148000639F770383471900639BA7036395590301
:1014900005041374F40F09098144034609005A87AF
:1014A000CE86A2852685C13B63995903990493F49E
:1014B000F40F05096DB7E39049FF0904D9BF6378BC
:1014C0009C006398590105041374F40FF1B7E3F617
:1014D0009CFCE39449FD0904C5BFE39C49FDA104BC
:1014E000F9B7411106C6D53EB24041016FF01F94D5
:1014F0003736000041110147A14613068614814585
:10150000014506C61D37373600000147A1461306C0
:10151000061585450145113F373600000147A146B4
:101520001306861589450145093703A601828147BF
:1015300021479146814513056004313503C6C181B9
:10154000814721479146854513056004ED3B03A67D
:101550004183814721479146894513056004E5335E
:1015600083A7818309476383E7020D476387E70207
:101570000547639BE702373600000147C146130663
:101580004616B24095450145410145B53736000044
:101590000147C1461306C616EDB7373600000147AE
:1015A000C14613064617F1BFB24041018280B7071A
:1015B000002083A7070737177A0013070720B3D740
:1015C000E70293F7F70F2384F1821307803EB38776
:1015D000E7022393F1828280B7F700E0D843814687
:1015E000799BD8C303D761823306A70290CBD4CBB3
:1015F00098431367070198C398431367170298C36A
:10160000D843058B75DF9843799B98C382807971A5
:1016100022D42A8411658545110506D6EFF04FD8EE
:10162000930700202312F100371501408D473EC477
:101630004C00E147130505803EC6EFF08F8922C8B4
:1016400037440140B70708000C08130504803ECC5E
:1016500002CA231E0100EFF02FEA1305048085451E
:10166000EFF00FF7B250225445618280011126CA73
:10167000B744014022CC4AC84EC606CEAE89328954
:10168000014493840480634A2401F24062444A8501
:10169000D2444249B24905618280930500042685FF
:1016A000EFF06FF57DD9B387890083850700268524
:1016B0000504C205C181EFF06FF3F1B71387818094
:1016C0001C43938601843E95636BD500B78600204A
:1016D0009386068063E5A60008C33E858280FD5799
:1016E000EDBF39713EDA2ED232D436D63AD842DC4A
:1016F00046DE9387C18022CC804326CA06CEAA84C8
:1017000009C41C4C99E3228515230C4454102686E9
:10171000228536C6EF007016F2406244D244216141
:101720008280011126CA4AC806CE22CC4EC652C4B7
:10173000AA842E8901C51C4D91E3CD299C4C80447F
:1017400099E32685E52197270000938767A5631C09
:10175000F402C0408357C400A18BB1C71C48A1C785
:10176000FD59294A1C4483450900FD17B1E91CC4F1
:1017700063DE07062286A94526857120FD5763088A
:10178000F502294535A097270000938767A36314C6
:10179000F4008044C1B7972700009387679EE31B3E
:1017A000F4FAC04445BFA2852685312A55D97D5516
:1017B000F2406244D2444249B249224A05618280E1
:1017C0001CC4050963D70700184C63CBE700638985
:1017D00045011C401387170018C02380B70059B774
:1017E000228626850D20E31F35F7D1B71C401387CD
:1017F000170018C029472380E70061B79387C1808D
:10180000AA85884339BF011122CC26CA4AC806CE10
:101810004EC6AA842E89328401C51C4D91E339211C
:10182000972700009387C7976319F406C0401C4CA4
:101830001CC48357C400A18BC9C31C48BDCF1C481E
:1018400008409379F90F1379F90F1D8D5C486346B1
:10185000F500A2852685652C2DE51C440505FD17A0
:101860001CC41C401387170018C0238037015C4834
:101870006389A7008357C400858B81CBA947631672
:10188000F900A285268561240DEDF24062444A8567
:10189000D2444249B249056182809727000093876C
:1018A00027926314F400804459B797270000938768
:1018B000278DE31EF4F6C0449DBFA2852685212016
:1018C0003DDD7D59D9B741119387C18026C284433C
:1018D00022C44AC006C62A892E8489C49C4C99E336
:1018E0002685A926972700009387878B631CF4021F
:1018F000C0400317C40093170701C18393F6870004
:10190000B5EE93F607019DEEA5472320F900136776
:1019100007042316E4007D55B24022449244024954
:101920004101828097270000938787896314F40020
:101930008044C1B79727000093878784E31BF4FA9C
:10194000C04445BF918B8DC74C5889C99307440447
:101950006384F5004A85352B232A04028357C4008B
:101960002322040093F7B7FD2316F4001C481CC083
:101970008357C40093E787002316F4001C4881EFC7
:101980008357C4001307002093F707286385E700F7
:10199000A2854A8585218357C40013F7170005C720
:1019A0005C4823240400B307F0401CCC1C480145CC
:1019B000A5F78317C40013F7070839DF93E7070477
:1019C0002316F40089BF898B014791E3584818C456
:1019D000F1BF83D7C500011122CC26CA06CE4AC862
:1019E0004EC613F78700AA842E8471EFD841634D49
:1019F000E000B841634AE0000145F2406244D2444D
:101A00004249B2490561828058547DD703A9040038
:101A10009396370123A0040063DD060670488357C0
:101A2000C400918B99C75C401D8E5C5899C33C40A3
:101A30001D8E5C540C50814626858297FD570357B6
:101A4000C400631DF5009440F54763E8D706B70767
:101A500040208507B3D7D700858BA5C31C48232218
:101A600004001CC09317370163D80700FD576314A7
:101A7000F5009C4091E368C84C5823A02401ADDDDB
:101A8000930744046384F50026852121232A040258
:101A9000A5B70C500146854626850297FD572A8634
:101AA000E31FF5F69C40A5DF75476385E7005947BE
:101AB0006394E70423A0240181B713670704231666
:101AC000E4007D551DBF83A90501E38709F203A941
:101AD00005008D8B23A0350133093941014791E37E
:101AE000D84918C4E35A20F11C540C50CA864E86BB
:101AF000268582976349A0008357C40093E70704B3
:101B00002316F4007DBFAA993309A940E1BF9C497F
:101B1000B9CF011122CC06CE2A8411C51C4D81E714
:101B20002EC62922B2459717000093876767639BEB
:101B3000F5004C408397C50095C722856244F2406A
:101B4000056141BD97170000938787676394F5008F
:101B50000C44CDB79717000093878762E39CF5FC90
:101B60004C44C9BFF2406244014505618280014591
:101B70008280411122C406C62A842316B500231789
:101B8000C50023200500232205002324050023226D
:101B9000050623280500232A0500232C05002146DD
:101BA00081451305C505EFE0AFE597170000938762
:101BB00087B45CD0971700009387E7B61CD49717BB
:101BC0000000938727BB5CD4971700009387E7BD7D
:101BD00000D01CD8B2402244410182809705000009
:101BE000938525F3A9A2411126C21306800693848A
:101BF000F5FFB384C4024AC02E8922C406C6938569
:101C00004407252E2A8401CD232005002322250107
:101C1000310508C4138684068145EFE06FDE228516
:101C2000B240224492440249410182801C4DADE3FE
:101C3000411106C622C497070000938767FA1CD596
:101C4000938701819C43232405042326050423282C
:101C500005046314F50085471CCD2A841D2848C05F
:101C60002285052808C422852D2048C44840014605
:101C70009145013708440546A545E53D48440946D8
:101C8000C945C53D85471CCCB240224441018280F4
:101C9000828041119387018126C284434AC006C6CF
:101CA0009C4C22C42A8999E326854937938484046D
:101CB0008044DC40FD1763D607009C40B9CF8440C8
:101CC000C5BF0317C40039E7C1778507232204067F
:101CD0002320040023220400232404005CC42328BE
:101CE0000400232A0400232C040021468145130507
:101CF000C405EFE0EFD0232A0402232C040223249E
:101D00000404232604042285B2402244924402495A
:101D1000410182801304840671BF91454A85E135F3
:101D200088C051FDB1472320F9000144E9BF797112
:101D300022D44AD052CC56CA5AC85EC606D626D23B
:101D40004ECE2A8AAE8A130485040149054BFD5BF9
:101D500009ECB25022544A8592540259F249624A1F
:101D6000D24A424BB24B45618280044483294400ED
:101D7000FD1963D409000040E1BF83D7C400637B31
:101D8000FB008397E40063877701A6855285829ADA
:101D90003369A90093848406E1BF1971A6DAAE8481
:101DA0008395E500A2DC86DE328463DC050083D700
:101DB000C40023A0060093F7070885E793070040B7
:101DC0001DA0300836C6EF00D023B246E34105FE21
:101DD0007247BD67F98F7977BA9793B717009CC29E
:101DE000F1BF930700041CC0F6506654D654014559
:101DF0000961828083D7C500011122CC06CE26CA94
:101E00004AC8898B2E8489CF930774041CC01CC8D0
:101E100085475CC8F2406244D244424905618280F1
:101E200074003000AA84953FA2452A892685312274
:101E300001ED8317C40013F7072069FFF19B93E7B7
:101E400027002316F400C9B797070000938747D9E6
:101E50009CD48357C40008C008C893E7070823161A
:101E6000F400A2475CC8B24791CF8315E4002685F1
:101E7000EF00D01B01C98357C400F19B93E7170003
:101E80002316F4008357C4003369F9002316240194
:101E900051B7DDC183A7C5FF411122C406C626C2C2
:101EA0001384C5FF63D307003E94AA84EF00F01E9D
:101EB0009387C1829C4381EF2322040023A6818261
:101EC0002244B2402685924441016F00301D637E5A
:101ED000F40014403307D4006396E7009843DC43D2
:101EE000369718C05CC0D9BFBA87D84319C3E37D01
:101EF000E4FE94433386D700631F86001040B296F9
:101F000094C33386D700E31DC7FA10435843B296F3
:101F100094C3D8C375B76375C400B1479CC04DB7AF
:101F20001040B306C4006316D70014435843B2965A
:101F300014C058C0C0C369B78280011126CA9384F7
:101F40003500F19806CE22CC4AC84EC6A104B1474E
:101F500063F3F404B14463E2B4042A89EF00F0139C
:101F60009387C18298433A8439E0938701839C43E5
:101F700091E781454A85892F23A8A182A6854A85B4
:101F8000A127FD5963193507B1472320F9004A8578
:101F9000EF00D01029A0E3D004FCB1471CC10145DB
:101FA000F2406244D2444249B249056182801C40F9
:101FB000858F63CF0702AD4663F6F6001CC03E94E2
:101FC00004C031A05C406313870223A6F1824A85D6
:101FD000EF00D00C1305B400930744006199330758
:101FE000F5405DDF3A94898F1CC05DBF5CC3C5B707
:101FF0002287404095BF130435007198E30285FCA9
:10200000B305A4404A85C925E31C35FBB5BF1C4672
:10201000FD171CC663DA0700184E63C5E700A94721
:102020006394F5006FF02FFE1C422E851387170076
:1020300018C22380B7008280011122CC26CA4AC868
:102040004EC652C406CE2A89AE893284B304D60065
:102050007D5A63149400014509A8834504004E8607
:102060004A8575370504E31645FFF2406244D244C1
:102070004249B249224A05618280357122CD26CB80
:102080004AC94EC706CF52C556C35AC1DEDEE2DC8E
:10209000E6DAAA89AE843289368409C51C4D99E3F3
:1020A000EFF0DFB8971700009387870F639BF40C5E
:1020B00083A4490083D7C400A18BF5C79C48E5C71A
:1020C00093070002A304F1029307000302D2230541
:1020D000F10222C6930B5002971A0000938A4A100D
:1020E000054C294B4A848347040099C36390770FBA
:1020F000B30C2441638D0C00E6864A86A6854E8586
:10210000253FFD576306F51E9256E69636D2834765
:102110000400638F071CFD571309140002C802CE88
:102120003ECA02CCA309010482D4834509001546A6
:102130005685B92713041900C24759E913F7070157
:1021400009C713070002A309E10413F7870009C7B1
:102150001307B002A309E104834609001307A00294
:102160006380E608F2474A84814625460347040017
:1021700093051400130707FD6379E60AB5CA3ECE3E
:1021800085A8971700009387A7036395F40083A49D
:1021900089000DB797170000938787FEE39CF4F042
:1021A00083A4C90001BFA6854E85EFF0CFF109D900
:1021B0007D55FA406A44DA444A49BA492A4A9A4A59
:1021C0000A4BF65B665CD65C0D618280050421BF1C
:1021D000330555413315AC00C98F3EC82289B1B7CC
:1021E000324793064700184336C6634907023ACE82
:1021F000034704009307E002631FF704034714003A
:102200009307A002631BF702B24709041387470034
:102210009C433AC663C107023ECA35A83307E04073
:1022200093E727003ACE3EC8E1B7B38767038546F8
:102230002E84BA9725BFFD57C5B7050402CA81464B
:10224000814725460347040093051400130707FD43
:102250006376E606F1F2834504000D46171500008B
:10226000130585F8312D11CD971700009387C7F717
:102270001D8D93070004B397A700424505045D8DAB
:102280002AC883450400194617150000130505F6F2
:10229000130914002304B102E5233DC197E7FFFFB2
:1022A000938747D695E74247B2471377071009CF80
:1022B00091073EC69257D2973ED22DB5B38767039A
:1022C00085462E84BA97BDBF9D07E19BA107D5B770
:1022D000780097060000938666D626860C084E8501
:1022E00097000000E7000000FD572A8AE314F5FC80
:1022F00083D7C40093F70704E39C07EA125555BD42
:10230000780097060000938666D326860C084E85D3
:10231000012AD9BF797156CA9C49BA8A984522D4F4
:1023200026D24ECE52CC06D64AD05AC85EC6AA890C
:102330002E84B284368A63D3E700BA879CC00347F1
:10234000340419C385079CC01C4093F7070281C75A
:102350009C4089079CC00329040013796900631A13
:102360000900130B9401FD5B5C449840998F634C0A
:10237000F9041C408346340493F70702B336D000B7
:10238000A5EB13063404D2854E85829AFD5763036C
:10239000F5041C4011469840998B5444814463973E
:1023A000C700B384E64063D3040081441C4418484A
:1023B0006354F700998FBE94014969047D5B63986B
:1023C0002405014509A885465A86D2854E85829AFC
:1023D000631E75017D55B250225492540259F24940
:1023E000624AD24A424BB24B456182800509ADBF79
:1023F0003307D40013060003A301C70403475404A2
:1024000093871600A2978906A381E7049DBF85469E
:102410002286D2854E85829AE30E65FB050945B773
:10242000797122D426D24AD04ECE06D652CC56CA84
:102430005AC8B68983C68501930790063289AA8453
:102440002E8413863504638DF60263E2D706930764
:1024500080056387F61863EDD70063800622930733
:102460003004638EF60A930A24042301D404C9A01D
:10247000930730066385F60A93074006E395F6FE58
:102480001C40084393F6070893054500C5C61C4148
:102490000CC363D807001307D002B307F040A301B1
:1024A000E404971600009386E6D429476DA89307A5
:1024B00000076383F61663E5D7029307E006638A95
:1024C000F6189307F006E390F6FA0C401C4313F855
:1024D0000508138547006307080608C39C438DA8B9
:1024E00093075007E383F6FE93078007638AF6128B
:1024F00093073007E399F6F61C43D0418145938654
:10250000470014C383AA070056859D2E01C53305D5
:10251000554148C05C401CC8A301040471A81C4379
:10252000930A2404938647009C4314C32301F404B4
:102530008547D5B793F607041C410CC3B9DAC20727
:10254000C18781BF93F5050408C3C9D983D70700A4
:102550001307F0066387E60E97160000938686C978
:102560002947A30104044C400CC463C5050008407E
:102570006D9908C099E3B28A91CDB28AB3F5E702AA
:10258000FD1AB69583C505002380BA00B3D5E702CE
:1025900063FFE70AA147631EF7001C40858B91CBC0
:1025A00058401C4863C7E70093070003A38FFAFE57
:1025B000FD1A3306564110C84E87CA867000A285A0
:1025C0002685893B7D5A631E450B7D55B2502254AA
:1025D00092540259F249624AD24A424B4561828082
:1025E000A382D504971600009386C6C00C4008430A
:1025F00013F805081C411105630D080208C313F701
:10260000150001C793E505020CC04147B9FB0C401A
:1026100093F5F5FD0CC0B1B79C4193E707029CC14F
:1026200093078007A302F404971600009386C6BDA3
:1026300075BF13F8050408C3E30308FCC207C18390
:102640007DBF971600009386E6BA214719BFAE8773
:1026500035B794411C43CC4913F80608138547004D
:102660006306080008C39C438CC301A808C393F603
:1026700006049C43F5DA2390B70023280400B28AAD
:1026800025BF14485686CA8526858299E30F45F3EF
:102690001C40898B8DE7B2474844E359F5F23E85EB
:1026A00035B785465686CA8526858299E30F65F13A
:1026B000050A5C443247998FE345FAFEE9BF014AB7
:1026C000930A94017D5BF5B7411122C42A842E85BB
:1026D00023AE018206C6EFE07FFEFD576317F500CB
:1026E0009387C1839C4391C31CC0B24022444101E3
:1026F0008280411122C42E848395E50006C64522BE
:10270000634905007C48AA977CC8B2402244410135
:1027100082808357C4007D777D17F98F2316F400DC
:10272000EDB783D7C500011122CC26CA4AC84EC6D0
:1027300006CE93F70710AA842E843289B68991C7F2
:102740008395E5008946014631228357C4007D7791
:102750007D17F98F2316F4008315E4006244F240DC
:10276000CE864A86B24942492685D24405613DA8B3
:10277000411122C42E848395E50006C6E128FD5749
:102780000357C400631BF500FD77FD17F98F23166F
:10279000F400B2402244410182808567D98F23161C
:1027A000F40068C8FDB78395E50005A8411122C46F
:1027B0002A842E85B285368623AE018206C6EFE0D6
:1027C000FFEAFD576317F5009387C1839C4391C3CC
:1027D0001CC0B240224441018280411122C42A849B
:1027E0002E8523AE018206C6CD20FD576317F50066
:1027F0009387C1839C4391C31CC0B24022444101D2
:102800008280411122C42A842E85B28523AE0182A2
:1028100006C6D120FD576317F5009387C1839C43FB
:1028200091C31CC0B240224441018280411122C4A4
:102830002A842E8523AE018206C66520FD576317C4
:10284000F5009387C1839C4391C31CC0B2402244CE
:1028500041018280411122C42A842E85B2853686A8
:1028600023AE018206C66120FD576317F5009387EA
:10287000C1839C4391C31CC0B24022444101828069
:1028800093F5F50F2A966314C500014582808347AE
:102890000500E38DB7FE0505FDB7828082804111FA
:1028A00022C42A842E85B285368623AE018206C6CE
:1028B000A920FD576317F5009387C1839C4391C3FB
:1028C0001CC0B2402244410182809307800523AEA0
:1028D000F1827D5582809307800523AEF1827D557C
:1028E00082809307800523AEF182014582809307A1
:1028F000800523AEF1827D5582809307800523AE4B
:10290000F1827D558280000053797374656D436C4C
:102910006B3A25640D0A00005468697320697320BE
:102920007072696E7466206578616D706C650D00FB
:102930000000000000000000002F00000000070061
:10294000070000147F147F1400242A7F2A120062DB
:102950006408132300364955225000000503000087
:1029600000001C224100000041221C000014083E0F
:1029700008140008083E0808000000A060000008D5
:102980000808080800006060000000201008040229
:10299000003E5149453E0000427F400000426151E7
:1029A0004946002141454B31001814127F10002781
:1029B00045454539003C4A49493000017109050344
:1029C00000364949493600064949291E0000363675
:1029D00000000000563600000008142241000014D8
:1029E00014141414000041221408000201510906B5
:1029F00000324959513E007C1211127C007F494936
:102A00004936003E41414122007F4141221C007F66
:102A100049494941007F09090901003E4149497A74
:102A2000007F0808087F0000417F410000204041EE
:102A30003F01007F08142241007F40404040007F5A
:102A4000020C027F007F0408107F003E4141413E9E
:102A5000007F09090906003E4151215E007F0919E6
:102A600029460046494949310001017F0101003FE3
:102A70004040403F001F2040201F003F4038403F63
:102A800000631408146300070870080700615149C7
:102A9000454300007F41410000552A552A5500005A
:102AA00041417F00000402010204004040404040D8
:102AB000000001020400002054545478007F484470
:102AC000443800384444442000384444487F0038A7
:102AD0005454541800087E0901020018A4A4A47CD0
:102AE000007F080404780000447D4000004080849A
:102AF0007D00007F102844000000417F4000007CE2
:102B000004180478007C08040478003844444438ED
:102B100000FC242424180018242418FC007C080439
:102B2000040800485454542000043F444020003C12
:102B30004040207C001C2040201C003C4030403C99
:102B4000004428102844001CA0A0A07C0044645429
:102B50004C4414141414141400000000000000006D
:102B60000000000000000000000000F8000000006D
:102B7000000000333000000000100C06100C0600AE
:102B8000000000000000000040C07840C078400015
:102B9000043F04043F040400007088FC0830000077
:102BA000001820FF211E0000F008F000E0180000CF
:102BB00000211C031E211E0000F008887000000088
:102BC0001E2123241927211010160E0000000000DA
:102BD0000000000000000000000000E018040200F7
:102BE000000000071820400000020418E000000068
:102BF0000040201807000000404080F08040400066
:102C00000202010F01020200000000F000000000BB
:102C10000101011F0101010000000000000000008F
:102C200080B0700000000000000000000000000004
:102C3000000101010101010100000000000000008D
:102C40000030300000000000000000008060180428
:102C5000006018060100000000E010080810E00005
:102C6000000F102020100F00001010F800000000CE
:102C70000020203F20200000007008080888700015
:102C80000030282422213000003008888848300095
:102C90000018202020110E000000C02010F80000B5
:102CA00000070424243F240000F80888880808004E
:102CB0000019212020110E0000E010888818000063
:102CC000000F112020110E0000380808C838080035
:102CD0000000003F000000000070880808887000B5
:102CE000001C222121221C0000E010080810E00036
:102CF0000000312222110F00000000C0C0000000BF
:102D000000000030300000000000008000000000E3
:102D100000008060000000000000804020100800DB
:102D200000010204081020004040404040404000A4
:102D3000040404040404040000081020408000007F
:102D40000020100804020100007048080808F00084
:102D50000000003036010000C030C828E810E00054
:102D60000718272423140B000000C038E0000000DF
:102D7000203C23020227382008F888888870000049
:102D8000203F202020110E00C0300808080838001D
:102D9000071820202010080008F808080810E00094
:102DA000203F202020100F0008F88888E808100035
:102DB000203F20202320180008F88888E808100009
:102DC000203F200003000000C03008080838000041
:102DD00007182020221E020008F808000008F80842
:102DE000203F210101213F20000808F808080000C9
:102DF0000020203F2020000000000808F8080800FC
:102E0000C08080807F00000008F888C02818080073
:102E1000203F20012638200008F8080000000000AC
:102E2000203F20202020300008F8F800F8F80800A3
:102E3000203F003F003F200008F830C00008F8089D
:102E4000203F200007183F00E01008080810E000AD
:102E50000F10202020100F0008F808080808F000C4
:102E6000203F210101010000E01008080810E000E7
:102E70000F18242438504F0008F88888888870007C
:102E8000203F2000030C302000708808080838001C
:102E90000038202121221C00180808F80808180012
:102EA0000000203F2000000008F808000008F80893
:102EB000001F202020201F000878880000C8380844
:102EC000000007380E010000F80800F80008F800BC
:102ED000033C0700073C0300081868808068180856
:102EE00020302C03032C30200838C800C8380800D4
:102EF0000000203F2000000010080808C838080023
:102F00002038262120201800000000FE02020200C6
:102F10000000007F40404000000C30C00000000076
:102F2000000000010638C00000020202FE0000009E
:102F3000004040407F000000000004020202040044
:102F40000000000000000000000000000000000081
:102F50008080808080808080000202040000000069
:102F60000000000000000000000080808080000061
:102F70000019242222223F2008F80080800000004F
:102F8000003F112020110E00000000808080000012
:102F9000000E112020201100000000808088F80021
:102FA000000E112020103F20000080808080000053
:102FB000001F222222221300008080F088888818B7
:102FC0000020203F202000000000808080808000C2
:102FD000006B94949493600008F800808080000057
:102FE000203F210000203F20008098980000000032
:102FF0000020203F20200000000000809898000062
:1030000000C08080807F000008F800008080800081
:10301000203F24022D302000000808F800000000A6
:103020000020203F20200000808080808080800061
:10303000203F20003F20003F8080008080800000F3
:10304000203F210000203F20000080808080000081
:10305000001F202020201F008080008080000000B2
:1030600080FFA12020110E000000008080808000E1
:10307000000E112020A0FF808080800080808000D2
:1030800020203F21200001000000808080808000FF
:103090000033242424241900008080E08080000074
:1030A0000000001F202000008080000000808000C1
:1030B000001F202020103F20808080000080808022
:1030C00000010E30080601008080008000808080B2
:1030D0000F300C030C300F000080800080808000D7
:1030E0000020312E0E312000808080000080808002
:1030F00080818E70180601000080808080808000B2
:103100000021302C2221300000000000807C0202CF
:1031100000000000003F404000000000FF000000F1
:1031200000000000FF0000000002027C80000000A0
:103130000040403F00000000008040808000800090
:10314000000000000001000074696D653A00000095
:10315000636F756E743A000070726573735F7469A3
:103160006D653A006F6E65202020000074776F2037
:10317000202000006C6F6E672020200000000000FF
:10318000000000000000000000000000000000003F
:10319000000000000000000000000000000000002F
:1031A000000000000000000000000000000000001F
:1031B000000000000000000000000000000000000F
:1031C00000000000000000000000000000000000FF
:1031D000000000000000000000000000232D302B44
:1031E00020000000686C4C0065666745464700009B
:1031F000303132333435363738394142434445462D
:1032000000000000303132333435363738396162EE
:08321000636465660000000024
:103218000000000001020304010203040607080974
:10322800000000009C310000BC3100007C3100002F
:103238000000000000000000000000000000000086
:103248000000000000000000000000000000000076
:103258000000000000000000000000000000000066
:103268000000000000000000000000000000000056
:103278000000000000000000000000000000000046
:103288000044950802040608B00000201000002041
:083298001000002000000000FE
:00000001FF
